:100000000C94CA030C94FB030C94FB030C94FB03A9
:100010000C94FB030C94FB030C94FB030C94FB0368
:100020000C94FB030C94FB030C94FB030C94FB0358
:100030000C94FB030C94FB030C94FB030C94FB0348
:100040000C94FB030C94FB030C94FB030C94FB0338
:100050000C94FB030C94FB030C94FB030C94000C1A
:100060000C94FB030C94FB030C94FB030C94FB0318
:100070000C94FB030C94FB030C94FB030C94FB0308
:100080000C94FB030C94FB030C94FB030C94FB03F8
:100090000C94FB030C94FB030C94FB030C94FB03E8
:1000A0000C94FB030C94FB030C94FB030C94FB03D8
:1000B0000C94FB030C94FB030C94FB030C94FB03C8
:1000C0000C94FB030C94FB030C94FB030C94FB03B8
:1000D0000C94FB030C94FB030C94FB030C94FB03A8
:1000E0000C94FB03100D130D020D060D0C0D4A0DA3
:1000F000170D1B0D210D250D290D2F0D330D370D5E
:100100004A0D3D0D410D450D0C9475070C94020DE3
:100110000C9465050C94E0060C94CC0D0C94060D23
:100120000C941A050C94B4040C94210D0C944A0DF3
:100130000C943D0D0C94250D0C94130D0C947A0623
:100140000C94370D0C94FB090C94FD030C94410D99
:100150000C9483050C94170D0C94BA0D0C94100D8F
:100160000C948F0A0C941B0D0C947F0B0C940305BC
:100170000C94E20A0C94330D0C942F0D0C940C0D7E
:100180000C9430050C94290D0C943C0A0C94450DEC
:1001900000000000003E5B4F5B3E3E6B4F6B3E1C21
:1001A0003E7C3E1C183C7E3C181C577D571C1C5E38
:1001B0007F5E1C00183C1800FFE7C3E7FF0018240F
:1001C0001800FFE7DBE7FF30483A060E26297929B9
:1001D00026407F050507407F05253F5A3CE73C5AEE
:1001E0007F3E1C1C08081C1C3E7F14227F22145FCB
:1001F0005F005F5F06097F017F006689956A606026
:1002000060606094A2FFA29408047E040810207E1F
:10021000201008082A1C08081C2A08081E101010A4
:10022000100C1E0C1E0C30383E3830060E3E0E06EA
:10023000000000000000005F00000007000700143D
:100240007F147F14242A7F2A1223130864623649FC
:100250005620500008070300001C224100004122E4
:100260001C002A1C7F1C2A08083E080800807030E9
:100270000008080808080000606000201008040258
:100280003E5149453E00427F40007249494946215E
:1002900041494D331814127F1027454545393C4AD2
:1002A00049493141211109073649494936464949E9
:1002B000291E000014000000403400000008142231
:1002C000411414141414004122140802015909069F
:1002D0003E415D594E7C1211127C7F494949363EA0
:1002E000414141227F4141413E7F494949417F0986
:1002F0000909013E414151737F0808087F00417F91
:1003000041002040413F017F081422417F4040408E
:10031000407F021C027F7F0408107F3E4141413E26
:100320007F090909063E4151215E7F0919294626A8
:100330004949493203017F01033F4040403F1F20AC
:1003400040201F3F4038403F631408146303047883
:1003500004036159494D43007F41414102040810A3
:1003600020004141417F04020102044040404040DE
:10037000000307080020545478407F28444438384C
:1003800044444428384444287F38545454180008BE
:100390007E090218A4A49C787F0804047800447D98
:1003A00040002040403D007F1028440000417F4035
:1003B000007C047804787C08040478384444443889
:1003C000FC1824241818242418FC7C080404084869
:1003D0005454542404043F44243C4040207C1C20BA
:1003E00040201C3C4030403C44281028444C909015
:1003F000907C4464544C440008364100000077006F
:1004000000004136080002010204023C2623263C7B
:100410001EA1A161123A4040207A38545455592106
:1004200055557941225454784221555478402054EE
:100430005579400C1E52721239555555593954543C
:10044000545939555454580000457C410002457DAB
:10045000420001457C407D1211127DF0282528F0D4
:100460007C545545002054547C547C0A097F493201
:10047000494949323A4444443A324A4848303A4178
:1004800041217A3A42402078009DA0A07D3D424221
:10049000423D3D4040403D3C24FF2424487E4943AA
:1004A000662B2FFC2F2BFF0929F620C0887E09031D
:1004B00020545479410000447D413048484A323844
:1004C0004040227A007A0A0A727D0D19317D262970
:1004D000292F28262929292630484D402038080868
:1004E000080808080808382F10C8ACBA2F1028349C
:1004F000FA00007B000008142A142222142A14088F
:10050000AA005500AAAA55AA55AA000000FF00108B
:100510001010FF00141414FF001010FF00FF101043
:10052000F010F0141414FC001414F700FF0000FF86
:1005300000FF1414F404FC141417101F10101F10E3
:100540001F1414141F00101010F0000000001F10E2
:100550001010101F10101010F010000000FF1010ED
:1005600010101010101010FF10000000FF140000F9
:10057000FF00FF00001F10170000FC04F414141704
:1005800010171414F404F40000FF00F714141414EA
:10059000141414F700F7141414171410101F101F5C
:1005A000141414F4141010F010F000001F101F00A9
:1005B00000001F14000000FC140000F010F01010E8
:1005C000FF10FF141414FF141010101F000000007F
:1005D000F010FFFFFFFFFFF0F0F0F0F0FFFFFF0073
:1005E00000000000FFFF0F0F0F0F0F384444384486
:1005F000FC4A4A4A347E02020606027E027E0263FA
:10060000554941633844443C04407E201E20060284
:100610007E020299A5E7A5991C2A492A1C4C720161
:10062000724C304A4D4D303048784830BC625A46A2
:100630003D3E494949007E0101017E2A2A2A2A2A93
:1006400044445F444440514A444040444A5140007D
:1006500000FF0103E080FF000008086B6B08361202
:10066000362436060F090F06000018180000001087
:1006700010003040FF0101001F01011E00191D176D
:1006800012003C3C3C3C000000000000000A0B0251
:10069000090C0D0E08070304010000000000000013
:1006A000000000000000000000000000000000004A
:1006B0000000000000000012111000000000000007
:1006C000000000000000000000000000000000002A
:1006D0000001021020200808102040102040800255
:1006E0000102010804020101020408102040808078
:1006F00040201008040201800402018040201008FC
:1007000004020108040201010204081020408001D3
:1007100002040810204080050505050705080808A3
:1007200008020202020A0A08080404040401010182
:10073000010101010103030303030303030407078A
:10074000070C0C0C0C0C0C0C0C0202020206060628
:1007500006060606060B0B0B0B0B0B0B0B00002201
:1007600000250028002B002E00310034000201007B
:1007700000050108010B0100002100240027002AC8
:10078000002D003000330001010000040107010AC0
:1007900001007F0B11241FBECFEFD1E2DEBFCDBF22
:1007A00000E00CBF12E0A0E0B2E0E2E9FCE100E012
:1007B0000BBF02C007900D92AC33B107D9F722E00E
:1007C000ACE3B2E001C01D92A337B207E1F717E036
:1007D000C4E9D7E000E006C022970109FE010BBF83
:1007E0000E943E0EC239D10780E00807A9F70E9497
:1007F000BD0D0C94470E0C9400002F923F924F9227
:100800005F926F927F928F929F92AF92BF92CF92A0
:10081000DF92EF92FF920F931F93CF93DF9300D05D
:100820001F92CDB7DEB74C017C836B836A015901FF
:10083000C8018701AC014C195D0957FF03C05195F0
:100840004195510995016B817C81261B370B37FF40
:1008500003C031952195310922242394312C24178A
:10086000350714F0212C312C2114310459F03A2D84
:100870002B2D5C01832F922F3B812C81DC82CB823C
:10088000C32ED22EAB81BC81AA16BB065CF43C2DD4
:100890002D2D6C01832F922F3B812C81BC82AB824A
:1008A000A32EB22E2501EB81FC814E1A5F0A3C017A
:1008B0006C187D0877FE03C0719461947108720111
:1008C00057FE03C0FFEFEF1AFF0AF594E794C8162E
:1008D000D9062CF421E030E03A83298324C06FEF5D
:1008E0007FEF7A8369831FC0D401ED91FC9104806E
:1008F000F581E02D980121143104D9F04B815C8100
:10090000B601C4011995E618F708F7FE06C0E9819B
:10091000FA81CE0EDF1EE40CF51C2B813C812F5F8B
:100920003F4F3C832B836B817C81A616B706E4F690
:1009300004C0A6016B817C81E4CF0F900F900F90D3
:100940000F90DF91CF911F910F91FF90EF90DF906B
:10095000CF90BF90AF909F908F907F906F905F905F
:100960004F903F902F9008956F927F928F929F9219
:10097000AF92BF92CF92DF92EF92FF920F931F93AD
:10098000CF93DF93EC015B016A0139014801E881F3
:10099000F9810284F385E02D87011995E881F981B9
:1009A000A601480D591D415051090284F385E02DDF
:1009B0009301B501CE011995E881F9810084F18593
:1009C000E02D9401A601B501CE011995E881F981C8
:1009D000B501660D771D615071090084F185E02D28
:1009E0009401A601CE011995DF91CF911F910F912E
:1009F000FF90EF90DF90CF90BF90AF909F908F903F
:100A00007F906F900895EF92FF920F931F93DC01F8
:100A1000ED91FC91240F351F215031090680F7819B
:100A2000E02D780189019B0119951F910F91FF908D
:100A3000EF900895EF92FF920F931F93DC01ED91D9
:100A4000FC91260F371F215031090680F781E02DD8
:100A500078018A0119951F910F91FF90EF900895E9
:100A60006F927F928F929F92AF92BF92CF92DF92BE
:100A7000EF92FF920F931F93CF93DF935C014A0194
:100A800069013801EB01C60ED71ECC15DD0574F4E3
:100A9000D501ED91FC910084F185E02D8701930152
:100AA000A401BE01C50119952196EFCFDF91CF9129
:100AB0001F910F91FF90EF90DF90CF90BF90AF907C
:100AC0009F908F907F906F900895EF92FF920F9379
:100AD0001F93DC01ED91FC9111971A960D911C91D9
:100AE0001B9718962D913C9119970684F785E02D58
:100AF0007B0140E050E060E070E019951F910F919C
:100B0000FF90EF9008950895FC011382128284E013
:100B100092E09183808375836483578346837187D2
:100B2000608753874287158A15861486178616862E
:100B300021E0248B8FEF9FEF938B828B918B808BA7
:100B4000268B08952F923F924F925F926F927F92E1
:100B50008F929F92AF92BF92CF92DF92EF92FF92CD
:100B60000F931F93CF93DF93CDB7DEB72C970FB6BC
:100B7000F894DEBF0FBECDBF9C878B873A011887E4
:100B80000F83FA86E986CD82DC0118968D919C91BF
:100B90001997681779070CF094C01A968D919C915B
:100BA0001B97481759070CF08CC08C2C912CCB014B
:100BB000B6E0CB9E800D911D1124181619060CF07D
:100BC00080C0C40153E0880F991F5A95E1F7860D44
:100BD000971D181619060CF074C0F5E02F9F200120
:100BE00011245B016B011C82920120573E4F2901A9
:100BF000461A570A3C81353031F0F201EA0DFB1DEF
:100C000044914B8301C01B827A82698213011E8248
:100C10008B8180FF13C0AB85BC85ED91FC91BD81BC
:100C2000B13031F40480F581E02D2F81388519C071
:100C30000684F785E02DEF80F8841EC0E985FA85EB
:100C40002F813885E217F307F9F0AB85BC85ED916C
:100C5000FC91BD81B13059F40480F581E02D2985E6
:100C60003A85A101B5018B859C8519950DC0068437
:100C7000F785E02DE984FA848401940149815A8141
:100C8000B6018B859C851995EB81E695EB83FE81FA
:100C9000FF5FFE8329813A81280D391D3A8329831C
:100CA0003FEF231A330AF83009F0B2CF4C814F5F7F
:100CB0004C83C80CD91C8FEFA81AB80A463009F02B
:100CC00099CF2C960FB6F894DEBF0FBECDBFDF9143
:100CD000CF911F910F91FF90EF90DF90CF90BF9039
:100CE000AF909F908F907F906F905F904F903F90CC
:100CF0002F900895CF92EF92FF920F931F93CF936F
:100D0000DF93EC01262F6A3049F42C898E859F856C
:100D100038E0239F800D911D112432C06D30A1F168
:100D2000EA88FB88088919894E855F856C857D85F1
:100D3000CC880E94A2052C89422F50E08C859D858D
:100D400036E0239F800D911D11249D878C872E896D
:100D50002223D1F06AEF64039001659F300D1124C6
:100D600068857985260F371F281739076CF463E0EB
:100D7000440F551F6A95E1F78E859F85840F951F57
:100D80009F878E871D861C8681E090E0DF91CF9142
:100D90001F910F91FF90EF90CF900895FC01758700
:100DA0006487578746870895611101C061E0FC019F
:100DB000648B0895FC01738B628B718B608B08953B
:100DC000EF92FF920F931F93DC01ED91FC9111972D
:100DD0001A960D911C911B9718962D913C9119977D
:100DE0000684F785E02D7B0140E050E060E070E094
:100DF00019951F910F91FF90EF900895EF92FF9238
:100E00000F931F93CF93DF931F92CDB7DEB77C0173
:100E1000062F142F40E451E060EF70E029830E9418
:100E200084058CE192E0F7019183808303A314A3EE
:100E3000298125A381E0808F10A616A20F90DF9153
:100E4000CF911F910F91FF90EF900895FC01808D3D
:100E5000811122C088E090E030E8A18DB28D21A5FB
:100E6000432F462321F04C91422B4C9304C04C91CC
:100E7000209524232C93A38DB48D2C9142A5242B53
:100E80002C93A38DB48D4C9122A5209524232C93D3
:100E90003695019711F708956EBD0DB407FEFDCF8D
:100EA0000895CF93DF93EC01ED8DFE8D90818CA59D
:100EB000809589238083EB8DFC8D90818AA5809518
:100EC00089238083E9A1FAA190818BA5809589234C
:100ED0008083CE010E942607E9A1FAA180819BA50B
:100EE000892B8083DF91CF910895662311F061E211
:100EF00001C060E20C945107CF93DF93EC01ED8DBC
:100F0000FE8D80819CA5892B8083EB8DFC8D90814B
:100F10008AA5809589238083E9A1FAA190818BA578
:100F2000809589238083CE010E942607E9A1FAA13A
:100F300080819BA5892B8083DF91CF910895CF93EA
:100F4000DF93EC0161E08DA10E944B0D60E08DA16B
:100F50000E94840D61E08CA10E944B0D61E08BA189
:100F60000E944B0D4BA150E0FA01E95EF84FE4916D
:100F7000F0E0EE0FFF1FE35AF84F859194919AA38A
:100F800089A32CA130E0F901E95EF84F849190E04B
:100F9000880F991F835A984FFC01859194919E8FD9
:100FA0008D8FFA01EF52F94F44914BA7F901EF529F
:100FB000F94F24912CA7888D882379F00E94CA0BC1
:100FC0008CB58C7F8CBD8DB581608DBD8CB58F7DD2
:100FD0008CBD8CB5837F8CBD41C061E088A50E942B
:100FE0004B0D61E08EA10E944B0D60E08FA10E942D
:100FF0004B0D48A550E0FA01E95EF84FE491F0E0AE
:10100000EE0FFF1FE35AF84FA591B491BC8FAB8F41
:101010002EA130E0F901E95EF84F849190E0880F4D
:10102000991F835A984FFC01859194919A8F898FCB
:10103000FA01EF52F94F44914AA7F901EF52F94FE3
:10104000249129A78C919AA5909589238C93E98D59
:10105000FA8D908189A580958923808361E08DA197
:101060000E94840D65E070E080E090E00E946D0CCD
:1010700060E08DA10E94840D64E170E080E090E06A
:101080000E946D0C61E08DA10E94840D66E970E004
:1010900080E090E00E946D0C6FEECE010E9451073F
:1010A00063E0CE010E947C0760E8CE010E947C07CD
:1010B00062E0CE010E947C076FECCE010E945107D6
:1010C00060E0CE010E947C0761ECCE010E947C07AB
:1010D00060E3CE010E947C076DEECE010E945107B5
:1010E00064E6CE010E947C0763E0CE010E947C078B
:1010F00062E1CE010E947C0761E8CE010E947C077C
:1011000068EECE010E94510765E8CE010E947C077F
:1011100060E0CE010E947C0768E7CE010E947C0758
:101120006BECCE010E94510769E3CE010E947C075F
:101130006CE2CE010E947C0760E0CE010E947C0739
:1011400064E3CE010E947C0762E0CE010E947C072E
:1011500067EFCE010E94510760E2CE010E947C073A
:101160006AEECE010E94510760E0CE010E947C072A
:1011700060E0CE010E947C0760ECCE010E94510726
:1011800063E2CE010E947C0761ECCE010E94510710
:1011900060E1CE010E947C0765ECCE010E94510700
:1011A0006EE3CE010E947C0768E2CE010E947C07BC
:1011B00067ECCE010E94510766E8CE010E947C07D1
:1011C00066E3CE010E94510768E4CE010E947C07CD
:1011D0006AE3CE010E94510765E5CE010E947C07BB
:1011E00061EBCE010E94510760E0CE010E947C07B6
:1011F00068E1CE010E947C0766EBCE010E94510798
:1012000068E0CE010E947C0762E8CE010E947C0764
:1012100067E2CE010E947C0762EFCE010E94510777
:1012200060E0CE010E947C0766E2CE010E94510779
:1012300061E0CE010E947C0760EECE010E94510762
:101240006FE0CE010E947C0761E3CE010E947C0723
:101250006BE2CE010E947C076CE0CE010E947C070D
:101260006EE0CE010E947C0768E0CE010E947C0700
:101270006EE4CE010E947C0761EFCE010E947C07E4
:1012800067E3CE010E947C0767E0CE010E947C07E5
:1012900060E1CE010E947C0763E0CE010E947C07E2
:1012A0006EE0CE010E947C0769E0CE010E947C07BF
:1012B00060E0CE010E947C0761EECE010E945107E2
:1012C00060E0CE010E947C076EE0CE010E947C07A8
:1012D00064E1CE010E947C0763E0CE010E947C079E
:1012E00061E1CE010E947C0767E0CE010E947C078D
:1012F00061E3CE010E947C0761ECCE010E947C0775
:1013000068E4CE010E947C0768E0CE010E947C0761
:101310006FE0CE010E947C076CE0CE010E947C074A
:1013200061E3CE010E947C0766E3CE010E947C0748
:101330006FE0CE010E947C0761E1CE010E9451075F
:1013400068E770E080E090E00E946D0C69E2CE01F9
:10135000DF91CF910C945107CF92DF92FF920F93C0
:101360001F93CF93DF9300D01F921F92CDB7DEB7AC
:101370006C01F62E6AE22B833A834D835C8379837A
:101380000E9451077981672FC6010E947C076F2D4B
:10139000C6010E947C073A81632FC6010E947C0728
:1013A0002B81622FC6010E947C076BE2C6010E945E
:1013B00051075C81652FC6010E947C074D81642F17
:1013C000C6010E947C07612FC6010E947C07602F26
:1013D000C6010E947C076CE2C6010F900F900F902F
:1013E0000F900F90DF91CF911F910F91FF90DF90A1
:1013F000CF900C945107EF92FF920F931F93CF93CE
:10140000DF93EC01F22EE32E77FD2FC0288539857E
:101410006217730754F557FD28C02A853B8542178C
:1014200053071CF58A010F5F1F4F9B012F5F3F4F32
:101430000E94AC09ED8DFE8D80819CA5892B808357
:10144000E9A1FAA190818BA58095892380836E2DD7
:10145000CE010E9426076F2DCE010E942607E9A12A
:10146000FAA180819BA5892B8083DF91CF911F9169
:101470000F91FF90EF900895CF92DF92EF92FF923D
:101480000F931F93CF93DF93EC017901D02EC12EE0
:101490008885998568177907CCF58A859B854817D3
:1014A0005907A4F59A012E0D3F1D821793071CF4CE
:1014B0007C01E41AF50A8A010E0D1F1D0150110965
:1014C0009B01CE010E94AC09ED8DFE8D80819CA513
:1014D000892B8083E9A1FAA190818BA5809589232E
:1014E0008083E114F10461F06C2DCE010E94260787
:1014F0006D2DCE010E94260781E0E81AF108F1CF98
:10150000E9A1FAA180819BA5892B8083DF91CF91EE
:101510001F910F91FF90EF90DF90CF900895CF92A1
:10152000DF92EF92FF920F931F93CF93DF93EC0123
:101530007901D02EC12E8885998568177907CCF559
:101540002A853B8542175307A4F59B012E0D3F1DAD
:10155000821793071CF47C01E61AF70A9B012E0DF3
:101560003F1D215031098A01CE010E94AC09ED8D49
:10157000FE8D80819CA5892B8083E9A1FAA19081B1
:101580008BA5809589238083E114F10461F06C2D93
:10159000CE010E9426076D2DCE010E94260781E014
:1015A000E81AF108F1CFE9A1FAA180819BA5892B66
:1015B0008083DF91CF911F910F91FF90EF90DF908B
:1015C000CF900895AF92BF92CF92DF92EF92FF92A9
:1015D0000F931F93CF93DF93EC0169015801288586
:1015E0003985621773070CF04EC08A859B854817B2
:1015F00059070CF048C0FB01EC0DFD1D2E173F07ED
:101600001CF46901C61AD70A9A012A0D3B1D8217DC
:1016100093071CF45C01A41AB50A8A010A0D1B1D6C
:10162000015011099B012C0D3D1D21503109CE01A6
:101630000E94AC09ED8DFE8D80819CA5892B808355
:10164000E9A1FAA190818BA58095892380831A1442
:101650001B049CF48601101611065CF46F2DCE015C
:101660000E9426076E2DCE010E9426070150110907
:10167000F2CF81E0A81AB108EACFE9A1FAA18081EE
:101680009BA5892B8083DF91CF911F910F91FF90B4
:10169000EF90DF90CF90BF90AF9008951F93CF93BE
:1016A000DF93EC01162F66E30E945107612F6370F0
:1016B0006D8B623041F0633089F0613011F068E485
:1016C00003C068E20CC068E8CE010E947C0780EF8E
:1016D00090E09987888780E491E00AC068EECE01A7
:1016E0000E947C0780E491E09987888780EF90E0F2
:1016F0009B878A87DF91CF911F910895089528E0F5
:1017000049E065E38CE392E00C94FE0660E070E053
:101710008CE392E00E94E00644E150E064E170E076
:101720008CE392E00E94CE0660E078EF8CE392E0DA
:101730000E94DA0663E08CE392E00E94D40660E344
:1017400072E08CE392E00E94250E48EC50E060E5E8
:1017500070E08CE392E00E94CE0660E078EF8CE3CC
:1017600092E00E94DA0663E08CE392E00E94D406E5
:1017700060E372E08CE392E00E94250E08958CE312
:1017800092E00E949F0761E08CE392E00E944E0B82
:101790000C94860BCF93CFB7F89480916902811196
:1017A00027C0ECE4F7E08491E6E0F7E09491E82FBD
:1017B000F0E0EE0FFF1FE958F84FA591B4918C911E
:1017C000892321F461E085E30E94840D61E085E3D3
:1017D0000E944B0D8CB580618CBD8CB580648CBD36
:1017E00061E084E30E944B0D61E083E30E944B0DB6
:1017F000809169028F5F80936902CFBFCF91089576
:101800001F920F920FB60F9211242F933F938F9335
:101810009F93AF93BF9380916B0290916C02A091C4
:101820006D02B0916E0230916A0223E0230F2D37D2
:1018300020F40196A11DB11D05C026E8230F0296D4
:10184000A11DB11D20936A0280936B0290936C02DC
:10185000A0936D02B0936E0280916F02909170021E
:10186000A0917102B09172020196A11DB11D8093E9
:101870006F0290937002A0937102B0937202BF91B5
:10188000AF919F918F913F912F910F900FBE0F902D
:101890001F9018953FB7F89480916F029091700255
:1018A000A0917102B091720226B5A89B05C02F3F8E
:1018B00019F00196A11DB11D3FBF6627782F892F12
:1018C0009A2F620F711D811D911D42E0660F771FD7
:1018D000881F991F4A95D1F70895CF92DF92EF9212
:1018E000FF92CF93DF936B017C010E944A0CEB01C6
:1018F000C114D104E104F10489F00E94370E0E9462
:101900004A0C6C1B7D0B683E734090F381E0C81A53
:10191000D108E108F108C851DC4FEACFDF91CF913F
:10192000FF90EF90DF90CF900895789484B5826017
:1019300084BD84B5816084BD85B5826085BD85B573
:10194000816085BDEEE6F0E0808181608083E1E822
:10195000F0E010828081826080838081816080835A
:10196000E0E8F0E0808181608083E1EBF0E080815D
:1019700084608083E0EBF0E0808181608083E1E936
:10198000F0E0808182608083808181608083E0E9F3
:10199000F0E0808181608083E1EAF0E08081826014
:1019A0008083808181608083E0EAF0E080818160D3
:1019B0008083E1E2F1E080818260808380818160C8
:1019C0008083E0E2F1E0808181608083EAE7F0E0FB
:1019D0008081846080838081826080838081816057
:1019E00080838081806880831092C100089590E098
:1019F000FC013197E231F10508F04CC0EE58FF4F81
:101A00000C94380E809180008F7703C08091800005
:101A10008F7D80938000089580918000877FF9CF2B
:101A200084B58F7702C084B58F7D84BD0895809181
:101A3000B0008F7703C08091B0008F7D8093B0009D
:101A40000895809190008F7707C0809190008F7DDE
:101A500003C080919000877F8093900008958091CB
:101A6000A0008F7707C08091A0008F7D03C0809178
:101A7000A000877F8093A0000895809120018F7738
:101A800007C0809120018F7D03C080912001877F56
:101A9000809320010895CF93DF9390E0FC01EF52F3
:101AA000F94F2491FC01E95EF84F8491882349F1B4
:101AB00090E0880F991FFC01E958F84FA591B49167
:101AC000835A984FFC01C591D4919FB7611108C00A
:101AD000F8948C91209582238C93888182230AC06C
:101AE000623051F4F8948C91322F309583238C938B
:101AF0008881822B888304C0F8948C91822B8C93EC
:101B00009FBFDF91CF9108950F931F93CF93DF93E2
:101B10001F92CDB7DEB7282F30E0F901E557F94F16
:101B20008491F901EF52F94F1491F901E95EF84FF0
:101B300004910023C9F0882321F069830E94F70CE7
:101B40006981E02FF0E0EE0FFF1FE35AF84FA591F7
:101B5000B4919FB7F8948C91611103C010958123C3
:101B600001C0812B8C939FBF0F90DF91CF911F916C
:101B70000F9108950E94420E08950E94950C0E94B4
:101B8000BC0D0E94BF0BC0E0D0E00E947E0B2097EE
:101B9000E1F30E940000F9CFCF92DF92EF92FF9223
:101BA0000F931F93CF93DF936C017A01EB01E60E45
:101BB000F71E00E010E0CE15DF0561F06991D60157
:101BC000ED91FC910190F081E02DC6011995080F6F
:101BD000191FF1CFC801DF91CF911F910F91FF9095
:101BE000EF90DF90CF9008956115710581F0DB01D2
:101BF0000D900020E9F7AD0141505109461B570BEC
:101C0000DC01ED91FC910280F381E02D199480E0DC
:101C100090E00895DC01ED91FC910190F081E02DC0
:101C200019940F931F93CF93DF93EC016DE00E9403
:101C30000A0E8C016AE0CE010E940A0E800F911FED
:101C4000DF91CF911F910F9108950F931F93CF9321
:101C5000DF93EC010E94F40D8C01CE010E94110E65
:101C6000800F911FDF91CF911F910F9108950895DB
:101C7000EE0FFF1F0590F491E02D19940790F69157
:101C8000E02D199481E090E0F8940C94470EF894BC
:021C9000FFCF84
:101C9200000000007A06CC0DBA0DFD0303051A05FB
:101CA200B404300565058305000000007A06CC0DFA
:101CB200FB09FD033C0A8F0AB404E20AE006750739
:0C1CC2005468616E6B20796F7521000082
:00000001FF
